{
  "_format": "hh-sol-artifact-1",
  "contractName": "SupplyChain",
  "sourceName": "contracts/supplychain.sol",
  "abi": [
    {
      "inputs": [],
      "stateMutability": "nonpayable",
      "type": "constructor"
    },
    {
      "anonymous": false,
      "inputs": [
        {
          "indexed": false,
          "internalType": "uint256",
          "name": "orderID",
          "type": "uint256"
        },
        {
          "indexed": false,
          "internalType": "uint256",
          "name": "timestamp",
          "type": "uint256"
        }
      ],
      "name": "OrderCreated",
      "type": "event"
    },
    {
      "anonymous": false,
      "inputs": [
        {
          "indexed": false,
          "internalType": "uint256",
          "name": "orderID",
          "type": "uint256"
        },
        {
          "indexed": false,
          "internalType": "uint256",
          "name": "timestamp",
          "type": "uint256"
        }
      ],
      "name": "OrderDelivered",
      "type": "event"
    },
    {
      "anonymous": false,
      "inputs": [
        {
          "indexed": false,
          "internalType": "uint256",
          "name": "orderID",
          "type": "uint256"
        },
        {
          "indexed": false,
          "internalType": "uint256",
          "name": "timestamp",
          "type": "uint256"
        }
      ],
      "name": "OrderPaid",
      "type": "event"
    },
    {
      "anonymous": false,
      "inputs": [
        {
          "indexed": false,
          "internalType": "uint256",
          "name": "orderID",
          "type": "uint256"
        },
        {
          "indexed": false,
          "internalType": "uint256",
          "name": "timestamp",
          "type": "uint256"
        }
      ],
      "name": "OrderReturned",
      "type": "event"
    },
    {
      "inputs": [
        {
          "internalType": "uint256",
          "name": "_orderID",
          "type": "uint256"
        }
      ],
      "name": "confirmDelivery",
      "outputs": [],
      "stateMutability": "nonpayable",
      "type": "function"
    },
    {
      "inputs": [
        {
          "internalType": "uint256",
          "name": "_orderID",
          "type": "uint256"
        }
      ],
      "name": "makePayment",
      "outputs": [],
      "stateMutability": "payable",
      "type": "function"
    },
    {
      "inputs": [],
      "name": "orderCounter",
      "outputs": [
        {
          "internalType": "uint256",
          "name": "",
          "type": "uint256"
        }
      ],
      "stateMutability": "view",
      "type": "function"
    },
    {
      "inputs": [
        {
          "internalType": "uint256",
          "name": "",
          "type": "uint256"
        },
        {
          "internalType": "uint256",
          "name": "",
          "type": "uint256"
        }
      ],
      "name": "orderHistory",
      "outputs": [
        {
          "internalType": "uint256",
          "name": "",
          "type": "uint256"
        }
      ],
      "stateMutability": "view",
      "type": "function"
    },
    {
      "inputs": [
        {
          "internalType": "uint256",
          "name": "",
          "type": "uint256"
        }
      ],
      "name": "orders",
      "outputs": [
        {
          "internalType": "string",
          "name": "productName",
          "type": "string"
        },
        {
          "internalType": "uint256",
          "name": "price",
          "type": "uint256"
        },
        {
          "internalType": "address",
          "name": "buyer",
          "type": "address"
        },
        {
          "internalType": "address",
          "name": "seller",
          "type": "address"
        },
        {
          "internalType": "enum SupplyChain.SupplyChainState",
          "name": "state",
          "type": "uint8"
        },
        {
          "internalType": "uint256",
          "name": "timestamp",
          "type": "uint256"
        }
      ],
      "stateMutability": "view",
      "type": "function"
    },
    {
      "inputs": [],
      "name": "owner",
      "outputs": [
        {
          "internalType": "address",
          "name": "",
          "type": "address"
        }
      ],
      "stateMutability": "view",
      "type": "function"
    },
    {
      "inputs": [
        {
          "internalType": "string",
          "name": "_productName",
          "type": "string"
        },
        {
          "internalType": "uint256",
          "name": "_price",
          "type": "uint256"
        }
      ],
      "name": "placeOrder",
      "outputs": [],
      "stateMutability": "nonpayable",
      "type": "function"
    },
    {
      "inputs": [
        {
          "internalType": "uint256",
          "name": "_orderID",
          "type": "uint256"
        }
      ],
      "name": "processRefund",
      "outputs": [],
      "stateMutability": "nonpayable",
      "type": "function"
    },
    {
      "inputs": [
        {
          "internalType": "uint256",
          "name": "_orderID",
          "type": "uint256"
        }
      ],
      "name": "requestReturn",
      "outputs": [],
      "stateMutability": "nonpayable",
      "type": "function"
    },
    {
      "inputs": [
        {
          "internalType": "uint256",
          "name": "_orderID",
          "type": "uint256"
        }
      ],
      "name": "trackOrder",
      "outputs": [
        {
          "internalType": "uint256[]",
          "name": "",
          "type": "uint256[]"
        }
      ],
      "stateMutability": "view",
      "type": "function"
    }
  ],
  "bytecode": "0x608060405234801561001057600080fd5b50336000806101000a81548173ffffffffffffffffffffffffffffffffffffffff021916908373ffffffffffffffffffffffffffffffffffffffff160217905550611f7e806100606000396000f3fe6080604052600436106100915760003560e01c8063a85c38ef11610059578063a85c38ef1461016c578063b789bf52146101ae578063c1deafde146101d9578063dac87ca414610216578063fd84cb971461023f57610091565b80635114cb521461009657806358676582146100b2578063609a6aaa146100db5780638da5cb5b14610118578063a1b6e83614610143575b600080fd5b6100b060048036038101906100ab9190611403565b610268565b005b3480156100be57600080fd5b506100d960048036038101906100d49190611403565b6105b1565b005b3480156100e757600080fd5b5061010260048036038101906100fd9190611403565b610875565b60405161010f91906114ee565b60405180910390f35b34801561012457600080fd5b5061012d610931565b60405161013a9190611551565b60405180910390f35b34801561014f57600080fd5b5061016a600480360381019061016591906116b2565b610955565b005b34801561017857600080fd5b50610193600480360381019061018e9190611403565b610c51565b6040516101a596959493929190611813565b60405180910390f35b3480156101ba57600080fd5b506101c3610d62565b6040516101d0919061187b565b60405180910390f35b3480156101e557600080fd5b5061020060048036038101906101fb9190611896565b610d68565b60405161020d919061187b565b60405180910390f35b34801561022257600080fd5b5061023d60048036038101906102389190611403565b610d99565b005b34801561024b57600080fd5b5061026660048036038101906102619190611403565b6110f5565b005b600073ffffffffffffffffffffffffffffffffffffffff163373ffffffffffffffffffffffffffffffffffffffff16036102d7576040517f08c379a00000000000000000000000000000000000000000000000000000000081526004016102ce90611922565b60405180910390fd5b6000811180156102e957506003548111155b610328576040517f08c379a000000000000000000000000000000000000000000000000000000000815260040161031f9061198e565b60405180910390fd5b60016000828152602001908152602001600020600101543414610380576040517f08c379a0000000000000000000000000000000000000000000000000000000008152600401610377906119fa565b60405180910390fd5b600060038111156103945761039361179c565b5b6001600083815260200190815260200160002060030160149054906101000a900460ff1660038111156103ca576103c961179c565b5b1461040a576040517f08c379a000000000000000000000000000000000000000000000000000000000815260040161040190611a66565b60405180910390fd5b336001600083815260200190815260200160002060030160006101000a81548173ffffffffffffffffffffffffffffffffffffffff021916908373ffffffffffffffffffffffffffffffffffffffff160217905550600180600083815260200190815260200160002060030160146101000a81548160ff021916908360038111156104985761049761179c565b5b02179055506000429050806001600084815260200190815260200160002060040181905550600260008381526020019081526020016000208190806001815401808255809150506001900390600052602060002001600090919091909150556001600083815260200190815260200160002060020160009054906101000a900473ffffffffffffffffffffffffffffffffffffffff1673ffffffffffffffffffffffffffffffffffffffff166108fc349081150290604051600060405180830381858888f19350505050158015610573573d6000803e3d6000fd5b507f7c32ca00142334d942c919d338fa31921d5108c316aebd0347bcda69ee8167c982826040516105a5929190611a86565b60405180910390a15050565b600073ffffffffffffffffffffffffffffffffffffffff163373ffffffffffffffffffffffffffffffffffffffff1603610620576040517f08c379a000000000000000000000000000000000000000000000000000000000815260040161061790611922565b60405180910390fd5b60008111801561063257506003548111155b610671576040517f08c379a00000000000000000000000000000000000000000000000000000000081526004016106689061198e565b60405180910390fd5b6001600082815260200190815260200160002060020160009054906101000a900473ffffffffffffffffffffffffffffffffffffffff1673ffffffffffffffffffffffffffffffffffffffff163373ffffffffffffffffffffffffffffffffffffffff1614610715576040517f08c379a000000000000000000000000000000000000000000000000000000000815260040161070c90611afb565b60405180910390fd5b600260038111156107295761072861179c565b5b6001600083815260200190815260200160002060030160149054906101000a900460ff16600381111561075f5761075e61179c565b5b1461079f576040517f08c379a000000000000000000000000000000000000000000000000000000000815260040161079690611a66565b60405180910390fd5b60036001600083815260200190815260200160002060030160146101000a81548160ff021916908360038111156107d9576107d861179c565b5b02179055506000429050806001600084815260200190815260200160002060040181905550600260008381526020019081526020016000208190806001815401808255809150506001900390600052602060002001600090919091909150557f1e537c645bddfa8a349d3361b33c9eadf20bf11a5bcb5c371031554120e1088e8282604051610869929190611a86565b60405180910390a15050565b606060008211801561088957506003548211155b6108c8576040517f08c379a00000000000000000000000000000000000000000000000000000000081526004016108bf9061198e565b60405180910390fd5b6002600083815260200190815260200160002080548060200260200160405190810160405280929190818152602001828054801561092557602002820191906000526020600020905b815481526020019060010190808311610911575b50505050509050919050565b60008054906101000a900473ffffffffffffffffffffffffffffffffffffffff1681565b6000825111610999576040517f08c379a000000000000000000000000000000000000000000000000000000000815260040161099090611b67565b60405180910390fd5b600081116109dc576040517f08c379a00000000000000000000000000000000000000000000000000000000081526004016109d390611bd3565b60405180910390fd5b600073ffffffffffffffffffffffffffffffffffffffff163373ffffffffffffffffffffffffffffffffffffffff1603610a4b576040517f08c379a0000000000000000000000000000000000000000000000000000000008152600401610a4290611922565b60405180910390fd5b60036000815480929190610a5e90611c22565b919050555060004290506040518060c001604052808481526020018381526020013373ffffffffffffffffffffffffffffffffffffffff168152602001600073ffffffffffffffffffffffffffffffffffffffff16815260200160006003811115610acc57610acb61179c565b5b8152602001828152506001600060035481526020019081526020016000206000820151816000019081610aff9190611e76565b506020820151816001015560408201518160020160006101000a81548173ffffffffffffffffffffffffffffffffffffffff021916908373ffffffffffffffffffffffffffffffffffffffff16021790555060608201518160030160006101000a81548173ffffffffffffffffffffffffffffffffffffffff021916908373ffffffffffffffffffffffffffffffffffffffff16021790555060808201518160030160146101000a81548160ff02191690836003811115610bc357610bc261179c565b5b021790555060a082015181600401559050506002600060035481526020019081526020016000208190806001815401808255809150506001900390600052602060002001600090919091909150557f7ab7b5bf31475b82f820e7fdfd6387632fc391f3bbd3f28afa54804f30bebd4d60035482604051610c44929190611a86565b60405180910390a1505050565b6001602052806000526040600020600091509050806000018054610c7490611c99565b80601f0160208091040260200160405190810160405280929190818152602001828054610ca090611c99565b8015610ced5780601f10610cc257610100808354040283529160200191610ced565b820191906000526020600020905b815481529060010190602001808311610cd057829003601f168201915b5050505050908060010154908060020160009054906101000a900473ffffffffffffffffffffffffffffffffffffffff16908060030160009054906101000a900473ffffffffffffffffffffffffffffffffffffffff16908060030160149054906101000a900460ff16908060040154905086565b60035481565b60026020528160005260406000208181548110610d8457600080fd5b90600052602060002001600091509150505481565b600073ffffffffffffffffffffffffffffffffffffffff163373ffffffffffffffffffffffffffffffffffffffff1603610e08576040517f08c379a0000000000000000000000000000000000000000000000000000000008152600401610dff90611922565b60405180910390fd5b600081118015610e1a57506003548111155b610e59576040517f08c379a0000000000000000000000000000000000000000000000000000000008152600401610e509061198e565b60405180910390fd5b6001600082815260200190815260200160002060030160009054906101000a900473ffffffffffffffffffffffffffffffffffffffff1673ffffffffffffffffffffffffffffffffffffffff163373ffffffffffffffffffffffffffffffffffffffff1614610efd576040517f08c379a0000000000000000000000000000000000000000000000000000000008152600401610ef490611afb565b60405180910390fd5b600380811115610f1057610f0f61179c565b5b6001600083815260200190815260200160002060030160149054906101000a900460ff166003811115610f4657610f4561179c565b5b14610f86576040517f08c379a0000000000000000000000000000000000000000000000000000000008152600401610f7d90611a66565b60405180910390fd5b60006001600083815260200190815260200160002060010154905060006001600084815260200190815260200160002060030160146101000a81548160ff02191690836003811115610fdb57610fda61179c565b5b02179055506000429050806001600085815260200190815260200160002060040181905550600260008481526020019081526020016000208190806001815401808255809150506001900390600052602060002001600090919091909150556001600084815260200190815260200160002060020160009054906101000a900473ffffffffffffffffffffffffffffffffffffffff1673ffffffffffffffffffffffffffffffffffffffff166108fc839081150290604051600060405180830381858888f193505050501580156110b6573d6000803e3d6000fd5b507f7ab7b5bf31475b82f820e7fdfd6387632fc391f3bbd3f28afa54804f30bebd4d83826040516110e8929190611a86565b60405180910390a1505050565b600073ffffffffffffffffffffffffffffffffffffffff163373ffffffffffffffffffffffffffffffffffffffff1603611164576040517f08c379a000000000000000000000000000000000000000000000000000000000815260040161115b90611922565b60405180910390fd5b60008111801561117657506003548111155b6111b5576040517f08c379a00000000000000000000000000000000000000000000000000000000081526004016111ac9061198e565b60405180910390fd5b6001600082815260200190815260200160002060020160009054906101000a900473ffffffffffffffffffffffffffffffffffffffff1673ffffffffffffffffffffffffffffffffffffffff163373ffffffffffffffffffffffffffffffffffffffff1614611259576040517f08c379a000000000000000000000000000000000000000000000000000000000815260040161125090611afb565b60405180910390fd5b6001600381111561126d5761126c61179c565b5b6001600083815260200190815260200160002060030160149054906101000a900460ff1660038111156112a3576112a261179c565b5b146112e3576040517f08c379a00000000000000000000000000000000000000000000000000000000081526004016112da90611a66565b60405180910390fd5b60026001600083815260200190815260200160002060030160146101000a81548160ff0219169083600381111561131d5761131c61179c565b5b02179055506000429050806001600084815260200190815260200160002060040181905550600260008381526020019081526020016000208190806001815401808255809150506001900390600052602060002001600090919091909150557fa8f4a4becaccbb7e9fbfe98b251c48404ddd08ad44e331d6cb7698af92e5427082826040516113ad929190611a86565b60405180910390a15050565b6000604051905090565b600080fd5b600080fd5b6000819050919050565b6113e0816113cd565b81146113eb57600080fd5b50565b6000813590506113fd816113d7565b92915050565b600060208284031215611419576114186113c3565b5b6000611427848285016113ee565b91505092915050565b600081519050919050565b600082825260208201905092915050565b6000819050602082019050919050565b611465816113cd565b82525050565b6000611477838361145c565b60208301905092915050565b6000602082019050919050565b600061149b82611430565b6114a5818561143b565b93506114b08361144c565b8060005b838110156114e15781516114c8888261146b565b97506114d383611483565b9250506001810190506114b4565b5085935050505092915050565b600060208201905081810360008301526115088184611490565b905092915050565b600073ffffffffffffffffffffffffffffffffffffffff82169050919050565b600061153b82611510565b9050919050565b61154b81611530565b82525050565b60006020820190506115666000830184611542565b92915050565b600080fd5b600080fd5b6000601f19601f8301169050919050565b7f4e487b7100000000000000000000000000000000000000000000000000000000600052604160045260246000fd5b6115bf82611576565b810181811067ffffffffffffffff821117156115de576115dd611587565b5b80604052505050565b60006115f16113b9565b90506115fd82826115b6565b919050565b600067ffffffffffffffff82111561161d5761161c611587565b5b61162682611576565b9050602081019050919050565b82818337600083830152505050565b600061165561165084611602565b6115e7565b90508281526020810184848401111561167157611670611571565b5b61167c848285611633565b509392505050565b600082601f8301126116995761169861156c565b5b81356116a9848260208601611642565b91505092915050565b600080604083850312156116c9576116c86113c3565b5b600083013567ffffffffffffffff8111156116e7576116e66113c8565b5b6116f385828601611684565b9250506020611704858286016113ee565b9150509250929050565b600081519050919050565b600082825260208201905092915050565b60005b8381101561174857808201518184015260208101905061172d565b60008484015250505050565b600061175f8261170e565b6117698185611719565b935061177981856020860161172a565b61178281611576565b840191505092915050565b611796816113cd565b82525050565b7f4e487b7100000000000000000000000000000000000000000000000000000000600052602160045260246000fd5b600481106117dc576117db61179c565b5b50565b60008190506117ed826117cb565b919050565b60006117fd826117df565b9050919050565b61180d816117f2565b82525050565b600060c082019050818103600083015261182d8189611754565b905061183c602083018861178d565b6118496040830187611542565b6118566060830186611542565b6118636080830185611804565b61187060a083018461178d565b979650505050505050565b6000602082019050611890600083018461178d565b92915050565b600080604083850312156118ad576118ac6113c3565b5b60006118bb858286016113ee565b92505060206118cc858286016113ee565b9150509250929050565b7f496e76616c696420616464726573730000000000000000000000000000000000600082015250565b600061190c600f83611719565b9150611917826118d6565b602082019050919050565b6000602082019050818103600083015261193b816118ff565b9050919050565b7f496e76616c6964206f7264657220494400000000000000000000000000000000600082015250565b6000611978601083611719565b915061198382611942565b602082019050919050565b600060208201905081810360008301526119a78161196b565b9050919050565b7f496e76616c6964207061796d656e7420616d6f756e7400000000000000000000600082015250565b60006119e4601683611719565b91506119ef826119ae565b602082019050919050565b60006020820190508181036000830152611a13816119d7565b9050919050565b7f496e76616c6964206f7264657220737461746500000000000000000000000000600082015250565b6000611a50601383611719565b9150611a5b82611a1a565b602082019050919050565b60006020820190508181036000830152611a7f81611a43565b9050919050565b6000604082019050611a9b600083018561178d565b611aa8602083018461178d565b9392505050565b7f556e617574686f72697a65642075736572000000000000000000000000000000600082015250565b6000611ae5601183611719565b9150611af082611aaf565b602082019050919050565b60006020820190508181036000830152611b1481611ad8565b9050919050565b7f50726f64756374206e616d652063616e6e6f7420626520656d70747900000000600082015250565b6000611b51601c83611719565b9150611b5c82611b1b565b602082019050919050565b60006020820190508181036000830152611b8081611b44565b9050919050565b7f5072696365206d7573742062652067726561746572207468616e207a65726f00600082015250565b6000611bbd601f83611719565b9150611bc882611b87565b602082019050919050565b60006020820190508181036000830152611bec81611bb0565b9050919050565b7f4e487b7100000000000000000000000000000000000000000000000000000000600052601160045260246000fd5b6000611c2d826113cd565b91507fffffffffffffffffffffffffffffffffffffffffffffffffffffffffffffffff8203611c5f57611c5e611bf3565b5b600182019050919050565b7f4e487b7100000000000000000000000000000000000000000000000000000000600052602260045260246000fd5b60006002820490506001821680611cb157607f821691505b602082108103611cc457611cc3611c6a565b5b50919050565b60008190508160005260206000209050919050565b60006020601f8301049050919050565b600082821b905092915050565b600060088302611d2c7fffffffffffffffffffffffffffffffffffffffffffffffffffffffffffffffff82611cef565b611d368683611cef565b95508019841693508086168417925050509392505050565b6000819050919050565b6000611d73611d6e611d69846113cd565b611d4e565b6113cd565b9050919050565b6000819050919050565b611d8d83611d58565b611da1611d9982611d7a565b848454611cfc565b825550505050565b600090565b611db6611da9565b611dc1818484611d84565b505050565b5b81811015611de557611dda600082611dae565b600181019050611dc7565b5050565b601f821115611e2a57611dfb81611cca565b611e0484611cdf565b81016020851015611e13578190505b611e27611e1f85611cdf565b830182611dc6565b50505b505050565b600082821c905092915050565b6000611e4d60001984600802611e2f565b1980831691505092915050565b6000611e668383611e3c565b9150826002028217905092915050565b611e7f8261170e565b67ffffffffffffffff811115611e9857611e97611587565b5b611ea28254611c99565b611ead828285611de9565b600060209050601f831160018114611ee05760008415611ece578287015190505b611ed88582611e5a565b865550611f40565b601f198416611eee86611cca565b60005b82811015611f1657848901518255600182019150602085019450602081019050611ef1565b86831015611f335784890151611f2f601f891682611e3c565b8355505b6001600288020188555050505b50505050505056fea26469706673582212204329412d31d9c1db0ec773a07755c5fd08266ec8b03fff4cd39862c7642399d764736f6c63430008180033",
  "linkReferences": {},
  "deployedLinkReferences": {}
}